{
  "contractName": "WIP",
  "abi": [
    {
      "inputs": [],
      "stateMutability": "nonpayable",
      "type": "constructor"
    },
    {
      "anonymous": false,
      "inputs": [
        {
          "indexed": true,
          "internalType": "address",
          "name": "owner",
          "type": "address"
        },
        {
          "indexed": true,
          "internalType": "address",
          "name": "spender",
          "type": "address"
        },
        {
          "indexed": false,
          "internalType": "uint256",
          "name": "value",
          "type": "uint256"
        }
      ],
      "name": "Approval",
      "type": "event"
    },
    {
      "anonymous": false,
      "inputs": [
        {
          "indexed": true,
          "internalType": "address",
          "name": "delegator",
          "type": "address"
        },
        {
          "indexed": true,
          "internalType": "address",
          "name": "fromDelegate",
          "type": "address"
        },
        {
          "indexed": true,
          "internalType": "address",
          "name": "toDelegate",
          "type": "address"
        }
      ],
      "name": "DelegateChanged",
      "type": "event"
    },
    {
      "anonymous": false,
      "inputs": [
        {
          "indexed": true,
          "internalType": "address",
          "name": "delegate",
          "type": "address"
        },
        {
          "indexed": false,
          "internalType": "uint256",
          "name": "previousBalance",
          "type": "uint256"
        },
        {
          "indexed": false,
          "internalType": "uint256",
          "name": "newBalance",
          "type": "uint256"
        }
      ],
      "name": "DelegateVotesChanged",
      "type": "event"
    },
    {
      "anonymous": false,
      "inputs": [
        {
          "indexed": true,
          "internalType": "address",
          "name": "previousOwner",
          "type": "address"
        },
        {
          "indexed": true,
          "internalType": "address",
          "name": "newOwner",
          "type": "address"
        }
      ],
      "name": "OwnershipTransferred",
      "type": "event"
    },
    {
      "anonymous": false,
      "inputs": [
        {
          "indexed": false,
          "internalType": "address",
          "name": "account",
          "type": "address"
        }
      ],
      "name": "Paused",
      "type": "event"
    },
    {
      "anonymous": false,
      "inputs": [
        {
          "indexed": true,
          "internalType": "address",
          "name": "from",
          "type": "address"
        },
        {
          "indexed": true,
          "internalType": "address",
          "name": "to",
          "type": "address"
        },
        {
          "indexed": false,
          "internalType": "uint256",
          "name": "value",
          "type": "uint256"
        }
      ],
      "name": "Transfer",
      "type": "event"
    },
    {
      "anonymous": false,
      "inputs": [
        {
          "indexed": false,
          "internalType": "address",
          "name": "account",
          "type": "address"
        }
      ],
      "name": "Unpaused",
      "type": "event"
    },
    {
      "inputs": [],
      "name": "DOMAIN_SEPARATOR",
      "outputs": [
        {
          "internalType": "bytes32",
          "name": "",
          "type": "bytes32"
        }
      ],
      "stateMutability": "view",
      "type": "function",
      "constant": true
    },
    {
      "inputs": [
        {
          "internalType": "address",
          "name": "owner",
          "type": "address"
        },
        {
          "internalType": "address",
          "name": "spender",
          "type": "address"
        }
      ],
      "name": "allowance",
      "outputs": [
        {
          "internalType": "uint256",
          "name": "",
          "type": "uint256"
        }
      ],
      "stateMutability": "view",
      "type": "function",
      "constant": true
    },
    {
      "inputs": [
        {
          "internalType": "address",
          "name": "spender",
          "type": "address"
        },
        {
          "internalType": "uint256",
          "name": "amount",
          "type": "uint256"
        }
      ],
      "name": "approve",
      "outputs": [
        {
          "internalType": "bool",
          "name": "",
          "type": "bool"
        }
      ],
      "stateMutability": "nonpayable",
      "type": "function"
    },
    {
      "inputs": [
        {
          "internalType": "address",
          "name": "account",
          "type": "address"
        }
      ],
      "name": "balanceOf",
      "outputs": [
        {
          "internalType": "uint256",
          "name": "",
          "type": "uint256"
        }
      ],
      "stateMutability": "view",
      "type": "function",
      "constant": true
    },
    {
      "inputs": [
        {
          "internalType": "uint256",
          "name": "amount",
          "type": "uint256"
        }
      ],
      "name": "burn",
      "outputs": [],
      "stateMutability": "nonpayable",
      "type": "function"
    },
    {
      "inputs": [
        {
          "internalType": "address",
          "name": "account",
          "type": "address"
        },
        {
          "internalType": "uint256",
          "name": "amount",
          "type": "uint256"
        }
      ],
      "name": "burnFrom",
      "outputs": [],
      "stateMutability": "nonpayable",
      "type": "function"
    },
    {
      "inputs": [
        {
          "internalType": "address",
          "name": "account",
          "type": "address"
        },
        {
          "internalType": "uint32",
          "name": "pos",
          "type": "uint32"
        }
      ],
      "name": "checkpoints",
      "outputs": [
        {
          "components": [
            {
              "internalType": "uint32",
              "name": "fromBlock",
              "type": "uint32"
            },
            {
              "internalType": "uint224",
              "name": "votes",
              "type": "uint224"
            }
          ],
          "internalType": "struct ERC20Votes.Checkpoint",
          "name": "",
          "type": "tuple"
        }
      ],
      "stateMutability": "view",
      "type": "function",
      "constant": true
    },
    {
      "inputs": [],
      "name": "commentThreshold",
      "outputs": [
        {
          "internalType": "uint256",
          "name": "",
          "type": "uint256"
        }
      ],
      "stateMutability": "view",
      "type": "function",
      "constant": true
    },
    {
      "inputs": [],
      "name": "decimals",
      "outputs": [
        {
          "internalType": "uint8",
          "name": "",
          "type": "uint8"
        }
      ],
      "stateMutability": "view",
      "type": "function",
      "constant": true
    },
    {
      "inputs": [
        {
          "internalType": "address",
          "name": "spender",
          "type": "address"
        },
        {
          "internalType": "uint256",
          "name": "subtractedValue",
          "type": "uint256"
        }
      ],
      "name": "decreaseAllowance",
      "outputs": [
        {
          "internalType": "bool",
          "name": "",
          "type": "bool"
        }
      ],
      "stateMutability": "nonpayable",
      "type": "function"
    },
    {
      "inputs": [
        {
          "internalType": "address",
          "name": "delegatee",
          "type": "address"
        }
      ],
      "name": "delegate",
      "outputs": [],
      "stateMutability": "nonpayable",
      "type": "function"
    },
    {
      "inputs": [
        {
          "internalType": "address",
          "name": "delegatee",
          "type": "address"
        },
        {
          "internalType": "uint256",
          "name": "nonce",
          "type": "uint256"
        },
        {
          "internalType": "uint256",
          "name": "expiry",
          "type": "uint256"
        },
        {
          "internalType": "uint8",
          "name": "v",
          "type": "uint8"
        },
        {
          "internalType": "bytes32",
          "name": "r",
          "type": "bytes32"
        },
        {
          "internalType": "bytes32",
          "name": "s",
          "type": "bytes32"
        }
      ],
      "name": "delegateBySig",
      "outputs": [],
      "stateMutability": "nonpayable",
      "type": "function"
    },
    {
      "inputs": [
        {
          "internalType": "address",
          "name": "account",
          "type": "address"
        }
      ],
      "name": "delegates",
      "outputs": [
        {
          "internalType": "address",
          "name": "",
          "type": "address"
        }
      ],
      "stateMutability": "view",
      "type": "function",
      "constant": true
    },
    {
      "inputs": [
        {
          "internalType": "uint256",
          "name": "blockNumber",
          "type": "uint256"
        }
      ],
      "name": "getPastTotalSupply",
      "outputs": [
        {
          "internalType": "uint256",
          "name": "",
          "type": "uint256"
        }
      ],
      "stateMutability": "view",
      "type": "function",
      "constant": true
    },
    {
      "inputs": [
        {
          "internalType": "address",
          "name": "account",
          "type": "address"
        },
        {
          "internalType": "uint256",
          "name": "blockNumber",
          "type": "uint256"
        }
      ],
      "name": "getPastVotes",
      "outputs": [
        {
          "internalType": "uint256",
          "name": "",
          "type": "uint256"
        }
      ],
      "stateMutability": "view",
      "type": "function",
      "constant": true
    },
    {
      "inputs": [
        {
          "internalType": "address",
          "name": "account",
          "type": "address"
        }
      ],
      "name": "getVotes",
      "outputs": [
        {
          "internalType": "uint256",
          "name": "",
          "type": "uint256"
        }
      ],
      "stateMutability": "view",
      "type": "function",
      "constant": true
    },
    {
      "inputs": [
        {
          "internalType": "address",
          "name": "spender",
          "type": "address"
        },
        {
          "internalType": "uint256",
          "name": "addedValue",
          "type": "uint256"
        }
      ],
      "name": "increaseAllowance",
      "outputs": [
        {
          "internalType": "bool",
          "name": "",
          "type": "bool"
        }
      ],
      "stateMutability": "nonpayable",
      "type": "function"
    },
    {
      "inputs": [],
      "name": "name",
      "outputs": [
        {
          "internalType": "string",
          "name": "",
          "type": "string"
        }
      ],
      "stateMutability": "view",
      "type": "function",
      "constant": true
    },
    {
      "inputs": [
        {
          "internalType": "address",
          "name": "owner",
          "type": "address"
        }
      ],
      "name": "nonces",
      "outputs": [
        {
          "internalType": "uint256",
          "name": "",
          "type": "uint256"
        }
      ],
      "stateMutability": "view",
      "type": "function",
      "constant": true
    },
    {
      "inputs": [
        {
          "internalType": "address",
          "name": "account",
          "type": "address"
        }
      ],
      "name": "numCheckpoints",
      "outputs": [
        {
          "internalType": "uint32",
          "name": "",
          "type": "uint32"
        }
      ],
      "stateMutability": "view",
      "type": "function",
      "constant": true
    },
    {
      "inputs": [],
      "name": "owner",
      "outputs": [
        {
          "internalType": "address",
          "name": "",
          "type": "address"
        }
      ],
      "stateMutability": "view",
      "type": "function",
      "constant": true
    },
    {
      "inputs": [],
      "name": "paused",
      "outputs": [
        {
          "internalType": "bool",
          "name": "",
          "type": "bool"
        }
      ],
      "stateMutability": "view",
      "type": "function",
      "constant": true
    },
    {
      "inputs": [
        {
          "internalType": "address",
          "name": "owner",
          "type": "address"
        },
        {
          "internalType": "address",
          "name": "spender",
          "type": "address"
        },
        {
          "internalType": "uint256",
          "name": "value",
          "type": "uint256"
        },
        {
          "internalType": "uint256",
          "name": "deadline",
          "type": "uint256"
        },
        {
          "internalType": "uint8",
          "name": "v",
          "type": "uint8"
        },
        {
          "internalType": "bytes32",
          "name": "r",
          "type": "bytes32"
        },
        {
          "internalType": "bytes32",
          "name": "s",
          "type": "bytes32"
        }
      ],
      "name": "permit",
      "outputs": [],
      "stateMutability": "nonpayable",
      "type": "function"
    },
    {
      "inputs": [],
      "name": "postThreshold",
      "outputs": [
        {
          "internalType": "uint256",
          "name": "",
          "type": "uint256"
        }
      ],
      "stateMutability": "view",
      "type": "function",
      "constant": true
    },
    {
      "inputs": [],
      "name": "renounceOwnership",
      "outputs": [],
      "stateMutability": "nonpayable",
      "type": "function"
    },
    {
      "inputs": [],
      "name": "symbol",
      "outputs": [
        {
          "internalType": "string",
          "name": "",
          "type": "string"
        }
      ],
      "stateMutability": "view",
      "type": "function",
      "constant": true
    },
    {
      "inputs": [],
      "name": "totalSupply",
      "outputs": [
        {
          "internalType": "uint256",
          "name": "",
          "type": "uint256"
        }
      ],
      "stateMutability": "view",
      "type": "function",
      "constant": true
    },
    {
      "inputs": [
        {
          "internalType": "address",
          "name": "recipient",
          "type": "address"
        },
        {
          "internalType": "uint256",
          "name": "amount",
          "type": "uint256"
        }
      ],
      "name": "transfer",
      "outputs": [
        {
          "internalType": "bool",
          "name": "",
          "type": "bool"
        }
      ],
      "stateMutability": "nonpayable",
      "type": "function"
    },
    {
      "inputs": [
        {
          "internalType": "address",
          "name": "sender",
          "type": "address"
        },
        {
          "internalType": "address",
          "name": "recipient",
          "type": "address"
        },
        {
          "internalType": "uint256",
          "name": "amount",
          "type": "uint256"
        }
      ],
      "name": "transferFrom",
      "outputs": [
        {
          "internalType": "bool",
          "name": "",
          "type": "bool"
        }
      ],
      "stateMutability": "nonpayable",
      "type": "function"
    },
    {
      "inputs": [
        {
          "internalType": "address",
          "name": "newOwner",
          "type": "address"
        }
      ],
      "name": "transferOwnership",
      "outputs": [],
      "stateMutability": "nonpayable",
      "type": "function"
    },
    {
      "inputs": [
        {
          "internalType": "uint256",
          "name": "newThreshold",
          "type": "uint256"
        }
      ],
      "name": "changePostThreshold",
      "outputs": [],
      "stateMutability": "nonpayable",
      "type": "function"
    },
    {
      "inputs": [
        {
          "internalType": "uint256",
          "name": "newThreshold",
          "type": "uint256"
        }
      ],
      "name": "changecommentThreshold",
      "outputs": [],
      "stateMutability": "nonpayable",
      "type": "function"
    },
    {
      "inputs": [
        {
          "internalType": "address",
          "name": "from",
          "type": "address"
        }
      ],
      "name": "canPost",
      "outputs": [
        {
          "internalType": "bool",
          "name": "",
          "type": "bool"
        }
      ],
      "stateMutability": "view",
      "type": "function",
      "constant": true
    },
    {
      "inputs": [
        {
          "internalType": "address",
          "name": "from",
          "type": "address"
        }
      ],
      "name": "canComment",
      "outputs": [
        {
          "internalType": "bool",
          "name": "",
          "type": "bool"
        }
      ],
      "stateMutability": "view",
      "type": "function",
      "constant": true
    },
    {
      "inputs": [],
      "name": "pause",
      "outputs": [],
      "stateMutability": "nonpayable",
      "type": "function"
    },
    {
      "inputs": [],
      "name": "unpause",
      "outputs": [],
      "stateMutability": "nonpayable",
      "type": "function"
    },
    {
      "inputs": [
        {
          "internalType": "address",
          "name": "to",
          "type": "address"
        },
        {
          "internalType": "uint256",
          "name": "amount",
          "type": "uint256"
        }
      ],
      "name": "mint",
      "outputs": [],
      "stateMutability": "nonpayable",
      "type": "function"
    }
  ],
  "bytecode": "0x6101406040527f6e71edae12b1b97f4d1f60370fef10105fa2faae0126114a169c64845d6126c9610120908152503480156200003a57600080fd5b506040518060400160405280600381526020017f5749500000000000000000000000000000000000000000000000000000000000815250806040518060400160405280600181526020017f31000000000000000000000000000000000000000000000000000000000000008152506040518060400160405280600381526020017f57495000000000000000000000000000000000000000000000000000000000008152506040518060400160405280600381526020017f5749500000000000000000000000000000000000000000000000000000000000815250816003908162000125919062000fd7565b50806004908162000137919062000fd7565b5050506000600560006101000a81548160ff02191690831515021790555062000175620001696200029c60201b60201c565b620002a460201b60201c565b60008280519060200120905060008280519060200120905060007f8b73c3c69bb8fe3d512ecc4cf759cc79239f7b179b0ffacaa9a75d522b39400f90508260c081815250508160e081815250504660a08181525050620001dd8184846200036a60201b60201c565b60808181525050806101008181525050505050505050620002323362000208620003a660201b60201c565b600a6200021691906200124e565b620f42406200022691906200129f565b620003af60201b60201c565b62000242620003a660201b60201c565b600a6200025091906200124e565b60646200025e91906200129f565b600a8190555062000274620003a660201b60201c565b600a6200028291906200124e565b60196200029091906200129f565b600b8190555062001764565b600033905090565b6000600560019054906101000a900473ffffffffffffffffffffffffffffffffffffffff16905081600560016101000a81548173ffffffffffffffffffffffffffffffffffffffff021916908373ffffffffffffffffffffffffffffffffffffffff1602179055508173ffffffffffffffffffffffffffffffffffffffff168173ffffffffffffffffffffffffffffffffffffffff167f8be0079c531659141344cd1fd0a4f28419497f9722a3daafe3b4186f6b6457e060405160405180910390a35050565b60008383834630604051602001620003879594939291906200135b565b6040516020818303038152906040528051906020012090509392505050565b60006012905090565b620003c68282620003ca60201b6200180d1760201c565b5050565b620003e182826200048860201b6200189a1760201c565b620003f16200060060201b60201c565b7bffffffffffffffffffffffffffffffffffffffffffffffffffffffff166200041f6200062460201b60201c565b111562000463576040517f08c379a00000000000000000000000000000000000000000000000000000000081526004016200045a906200143f565b60405180910390fd5b6200048260096200062e60201b620019f917836200064660201b60201c565b50505050565b600073ffffffffffffffffffffffffffffffffffffffff168273ffffffffffffffffffffffffffffffffffffffff1603620004fa576040517f08c379a0000000000000000000000000000000000000000000000000000000008152600401620004f190620014b1565b60405180910390fd5b6200050e60008383620008f760201b60201c565b8060026000828254620005229190620014d3565b92505081905550806000808473ffffffffffffffffffffffffffffffffffffffff1673ffffffffffffffffffffffffffffffffffffffff1681526020019081526020016000206000828254620005799190620014d3565b925050819055508173ffffffffffffffffffffffffffffffffffffffff16600073ffffffffffffffffffffffffffffffffffffffff167fddf252ad1be2c89b69c2b068fc378daa952ba7f163c4a11628f55a4df523b3ef83604051620005e091906200150e565b60405180910390a3620005fc600083836200096760201b60201c565b5050565b60007bffffffffffffffffffffffffffffffffffffffffffffffffffffffff905090565b6000600254905090565b600081836200063e9190620014d3565b905092915050565b60008060008580549050905060008114620006bb57856001826200066b91906200152b565b815481106200067f576200067e62001566565b5b9060005260206000200160000160049054906101000a90047bffffffffffffffffffffffffffffffffffffffffffffffffffffffff16620006be565b60005b7bffffffffffffffffffffffffffffffffffffffffffffffffffffffff169250620006ea83858760201c565b915060008111801562000743575043866001836200070991906200152b565b815481106200071d576200071c62001566565b5b9060005260206000200160000160009054906101000a900463ffffffff1663ffffffff16145b15620007e4576200075f826200098460201b62001a0f1760201c565b866001836200076f91906200152b565b8154811062000783576200078262001566565b5b9060005260206000200160000160046101000a8154817bffffffffffffffffffffffffffffffffffffffffffffffffffffffff02191690837bffffffffffffffffffffffffffffffffffffffffffffffffffffffff160217905550620008ee565b8560405180604001604052806200080643620009f260201b62001a7a1760201c565b63ffffffff16815260200162000827856200098460201b62001a0f1760201c565b7bffffffffffffffffffffffffffffffffffffffffffffffffffffffff168152509080600181540180825580915050600190039060005260206000200160009091909190915060008201518160000160006101000a81548163ffffffff021916908363ffffffff16021790555060208201518160000160046101000a8154817bffffffffffffffffffffffffffffffffffffffffffffffffffffffff02191690837bffffffffffffffffffffffffffffffffffffffffffffffffffffffff16021790555050505b50935093915050565b6200090762000a4860201b60201c565b156200094a576040517f08c379a00000000000000000000000000000000000000000000000000000000081526004016200094190620015e5565b60405180910390fd5b6200096283838362000a5f60201b62001acd1760201c565b505050565b6200097f83838362000a6460201b62001ad21760201c565b505050565b60007bffffffffffffffffffffffffffffffffffffffffffffffffffffffff8016821115620009ea576040517f08c379a0000000000000000000000000000000000000000000000000000000008152600401620009e1906200167d565b60405180910390fd5b819050919050565b600063ffffffff801682111562000a40576040517f08c379a000000000000000000000000000000000000000000000000000000000815260040162000a379062001715565b60405180910390fd5b819050919050565b6000600560009054906101000a900460ff16905090565b505050565b62000a7c83838362000ab460201b62001afd1760201c565b62000aaf62000a918462000ab960201b60201c565b62000aa28462000ab960201b60201c565b8362000b2260201b60201c565b505050565b505050565b6000600760008373ffffffffffffffffffffffffffffffffffffffff1673ffffffffffffffffffffffffffffffffffffffff16815260200190815260200160002060009054906101000a900473ffffffffffffffffffffffffffffffffffffffff169050919050565b8173ffffffffffffffffffffffffffffffffffffffff168373ffffffffffffffffffffffffffffffffffffffff161415801562000b5f5750600081115b1562000d4057600073ffffffffffffffffffffffffffffffffffffffff168373ffffffffffffffffffffffffffffffffffffffff161462000c525760008062000bf9600860008773ffffffffffffffffffffffffffffffffffffffff1673ffffffffffffffffffffffffffffffffffffffff16815260200190815260200160002062000d4560201b62001b0217856200064660201b60201c565b915091508473ffffffffffffffffffffffffffffffffffffffff167fdec2bacdd2f05b59de34da9b523dff8be42e5e38e818c82fdb0bae774387a724838360405162000c4792919062001737565b60405180910390a250505b600073ffffffffffffffffffffffffffffffffffffffff168273ffffffffffffffffffffffffffffffffffffffff161462000d3f5760008062000ce6600860008673ffffffffffffffffffffffffffffffffffffffff1673ffffffffffffffffffffffffffffffffffffffff1681526020019081526020016000206200062e60201b620019f917856200064660201b60201c565b915091508373ffffffffffffffffffffffffffffffffffffffff167fdec2bacdd2f05b59de34da9b523dff8be42e5e38e818c82fdb0bae774387a724838360405162000d3492919062001737565b60405180910390a250505b5b505050565b6000818362000d5591906200152b565b905092915050565b600081519050919050565b7f4e487b7100000000000000000000000000000000000000000000000000000000600052604160045260246000fd5b7f4e487b7100000000000000000000000000000000000000000000000000000000600052602260045260246000fd5b6000600282049050600182168062000ddf57607f821691505b60208210810362000df55762000df462000d97565b5b50919050565b60008190508160005260206000209050919050565b60006020601f8301049050919050565b600082821b905092915050565b60006008830262000e5f7fffffffffffffffffffffffffffffffffffffffffffffffffffffffffffffffff8262000e20565b62000e6b868362000e20565b95508019841693508086168417925050509392505050565b6000819050919050565b6000819050919050565b600062000eb862000eb262000eac8462000e83565b62000e8d565b62000e83565b9050919050565b6000819050919050565b62000ed48362000e97565b62000eec62000ee38262000ebf565b84845462000e2d565b825550505050565b600090565b62000f0362000ef4565b62000f1081848462000ec9565b505050565b5b8181101562000f385762000f2c60008262000ef9565b60018101905062000f16565b5050565b601f82111562000f875762000f518162000dfb565b62000f5c8462000e10565b8101602085101562000f6c578190505b62000f8462000f7b8562000e10565b83018262000f15565b50505b505050565b600082821c905092915050565b600062000fac6000198460080262000f8c565b1980831691505092915050565b600062000fc7838362000f99565b9150826002028217905092915050565b62000fe28262000d5d565b67ffffffffffffffff81111562000ffe5762000ffd62000d68565b5b6200100a825462000dc6565b6200101782828562000f3c565b600060209050601f8311600181146200104f57600084156200103a578287015190505b62001046858262000fb9565b865550620010b6565b601f1984166200105f8662000dfb565b60005b82811015620010895784890151825560018201915060208501945060208101905062001062565b86831015620010a95784890151620010a5601f89168262000f99565b8355505b6001600288020188555050505b505050505050565b7f4e487b7100000000000000000000000000000000000000000000000000000000600052601160045260246000fd5b60008160011c9050919050565b6000808291508390505b60018511156200114c57808604811115620011245762001123620010be565b5b6001851615620011345780820291505b80810290506200114485620010ed565b945062001104565b94509492505050565b6000826200116757600190506200123a565b816200117757600090506200123a565b81600181146200119057600281146200119b57620011d1565b60019150506200123a565b60ff841115620011b057620011af620010be565b5b8360020a915084821115620011ca57620011c9620010be565b5b506200123a565b5060208310610133831016604e8410600b84101617156200120b5782820a905083811115620012055762001204620010be565b5b6200123a565b6200121a8484846001620010fa565b92509050818404811115620012345762001233620010be565b5b81810290505b9392505050565b600060ff82169050919050565b60006200125b8262000e83565b9150620012688362001241565b9250620012977fffffffffffffffffffffffffffffffffffffffffffffffffffffffffffffffff848462001155565b905092915050565b6000620012ac8262000e83565b9150620012b98362000e83565b9250828202620012c98162000e83565b91508282048414831517620012e357620012e2620010be565b5b5092915050565b6000819050919050565b620012ff81620012ea565b82525050565b620013108162000e83565b82525050565b600073ffffffffffffffffffffffffffffffffffffffff82169050919050565b6000620013438262001316565b9050919050565b620013558162001336565b82525050565b600060a082019050620013726000830188620012f4565b620013816020830187620012f4565b620013906040830186620012f4565b6200139f606083018562001305565b620013ae60808301846200134a565b9695505050505050565b600082825260208201905092915050565b7f4552433230566f7465733a20746f74616c20737570706c79207269736b73206f60008201527f766572666c6f77696e6720766f74657300000000000000000000000000000000602082015250565b600062001427603083620013b8565b91506200143482620013c9565b604082019050919050565b600060208201905081810360008301526200145a8162001418565b9050919050565b7f45524332303a206d696e7420746f20746865207a65726f206164647265737300600082015250565b600062001499601f83620013b8565b9150620014a68262001461565b602082019050919050565b60006020820190508181036000830152620014cc816200148a565b9050919050565b6000620014e08262000e83565b9150620014ed8362000e83565b9250828201905080821115620015085762001507620010be565b5b92915050565b600060208201905062001525600083018462001305565b92915050565b6000620015388262000e83565b9150620015458362000e83565b925082820390508181111562001560576200155f620010be565b5b92915050565b7f4e487b7100000000000000000000000000000000000000000000000000000000600052603260045260246000fd5b7f5061757361626c653a2070617573656400000000000000000000000000000000600082015250565b6000620015cd601083620013b8565b9150620015da8262001595565b602082019050919050565b600060208201905081810360008301526200160081620015be565b9050919050565b7f53616665436173743a2076616c756520646f65736e27742066697420696e203260008201527f3234206269747300000000000000000000000000000000000000000000000000602082015250565b600062001665602783620013b8565b9150620016728262001607565b604082019050919050565b60006020820190508181036000830152620016988162001656565b9050919050565b7f53616665436173743a2076616c756520646f65736e27742066697420696e203360008201527f3220626974730000000000000000000000000000000000000000000000000000602082015250565b6000620016fd602683620013b8565b91506200170a826200169f565b604082019050919050565b600060208201905081810360008301526200173081620016ee565b9050919050565b60006040820190506200174e600083018562001305565b6200175d602083018462001305565b9392505050565b60805160a05160c05160e0516101005161012051614987620017b4600039600061147e01526000611fbe0152600061200001526000611fdf01526000611f6c01526000611f9301526149876000f3fe608060405234801561001057600080fd5b50600436106102275760003560e01c8063715018a611610130578063a457c2d7116100b8578063d505accf1161007c578063d505accf1461069e578063dd62ed3e146106ba578063ed25f27c146106ea578063f1127ed814610708578063f2fde38b1461073857610227565b8063a457c2d7146105d6578063a48603db14610606578063a9059cbb14610636578063bc80b35a14610666578063c3cda5201461068257610227565b80638456cb59116100ff5780638456cb59146105305780638da5cb5b1461053a5780638e539e8c1461055857806395d89b41146105885780639ab24eb0146105a657610227565b8063715018a6146104be57806379a0b20a146104c857806379cc6790146104e45780637ecebe001461050057610227565b80633f4ba83a116101b35780635c19a95c116101825780635c19a95c146103f45780635c975abb1461041057806362d3576b1461042e5780636fcfff451461045e57806370a082311461048e57610227565b80633f4ba83a1461038257806340c10f191461038c57806342966c68146103a8578063587cde1e146103c457610227565b806323b872dd116101fa57806323b872dd146102b6578063313ce567146102e65780633644e5151461030457806339509351146103225780633a46b1a81461035257610227565b806306fdde031461022c578063095ea7b31461024a57806318160ddd1461027a57806318f2bf9014610298575b600080fd5b610234610754565b6040516102419190613068565b60405180910390f35b610264600480360381019061025f9190613123565b6107e6565b604051610271919061317e565b60405180910390f35b610282610804565b60405161028f91906131a8565b60405180910390f35b6102a061080e565b6040516102ad91906131a8565b60405180910390f35b6102d060048036038101906102cb91906131c3565b610814565b6040516102dd919061317e565b60405180910390f35b6102ee61090c565b6040516102fb9190613232565b60405180910390f35b61030c610915565b6040516103199190613266565b60405180910390f35b61033c60048036038101906103379190613123565b610924565b604051610349919061317e565b60405180910390f35b61036c60048036038101906103679190613123565b6109d0565b60405161037991906131a8565b60405180910390f35b61038a610a64565b005b6103a660048036038101906103a19190613123565b610aea565b005b6103c260048036038101906103bd9190613281565b610b74565b005b6103de60048036038101906103d991906132ae565b610b88565b6040516103eb91906132ea565b60405180910390f35b61040e600480360381019061040991906132ae565b610bf1565b005b610418610c05565b604051610425919061317e565b60405180910390f35b610448600480360381019061044391906132ae565b610c1c565b604051610455919061317e565b60405180910390f35b610478600480360381019061047391906132ae565b610c33565b6040516104859190613324565b60405180910390f35b6104a860048036038101906104a391906132ae565b610c87565b6040516104b591906131a8565b60405180910390f35b6104c6610ccf565b005b6104e260048036038101906104dd9190613281565b610d57565b005b6104fe60048036038101906104f99190613123565b610dfb565b005b61051a600480360381019061051591906132ae565b610e76565b60405161052791906131a8565b60405180910390f35b610538610ec6565b005b610542610f4c565b60405161054f91906132ea565b60405180910390f35b610572600480360381019061056d9190613281565b610f76565b60405161057f91906131a8565b60405180910390f35b610590610fcc565b60405161059d9190613068565b60405180910390f35b6105c060048036038101906105bb91906132ae565b61105e565b6040516105cd91906131a8565b60405180910390f35b6105f060048036038101906105eb9190613123565b61116f565b6040516105fd919061317e565b60405180910390f35b610620600480360381019061061b91906132ae565b61125a565b60405161062d919061317e565b60405180910390f35b610650600480360381019061064b9190613123565b611271565b60405161065d919061317e565b60405180910390f35b610680600480360381019061067b9190613281565b61128f565b005b61069c60048036038101906106979190613397565b611333565b005b6106b860048036038101906106b39190613424565b611437565b005b6106d460048036038101906106cf91906134c6565b611579565b6040516106e191906131a8565b60405180910390f35b6106f2611600565b6040516106ff91906131a8565b60405180910390f35b610722600480360381019061071d9190613532565b611606565b60405161072f91906135e7565b60405180910390f35b610752600480360381019061074d91906132ae565b611716565b005b60606003805461076390613631565b80601f016020809104026020016040519081016040528092919081815260200182805461078f90613631565b80156107dc5780601f106107b1576101008083540402835291602001916107dc565b820191906000526020600020905b8154815290600101906020018083116107bf57829003601f168201915b5050505050905090565b60006107fa6107f3611b18565b8484611b20565b6001905092915050565b6000600254905090565b600b5481565b6000610821848484611ce9565b6000600160008673ffffffffffffffffffffffffffffffffffffffff1673ffffffffffffffffffffffffffffffffffffffff168152602001908152602001600020600061086c611b18565b73ffffffffffffffffffffffffffffffffffffffff1673ffffffffffffffffffffffffffffffffffffffff168152602001908152602001600020549050828110156108ec576040517f08c379a00000000000000000000000000000000000000000000000000000000081526004016108e3906136d4565b60405180910390fd5b610900856108f8611b18565b858403611b20565b60019150509392505050565b60006012905090565b600061091f611f68565b905090565b60006109c6610931611b18565b84846001600061093f611b18565b73ffffffffffffffffffffffffffffffffffffffff1673ffffffffffffffffffffffffffffffffffffffff16815260200190815260200160002060008873ffffffffffffffffffffffffffffffffffffffff1673ffffffffffffffffffffffffffffffffffffffff168152602001908152602001600020546109c19190613723565b611b20565b6001905092915050565b6000438210610a14576040517f08c379a0000000000000000000000000000000000000000000000000000000008152600401610a0b906137a3565b60405180910390fd5b610a5c600860008573ffffffffffffffffffffffffffffffffffffffff1673ffffffffffffffffffffffffffffffffffffffff1681526020019081526020016000208361202a565b905092915050565b610a6c611b18565b73ffffffffffffffffffffffffffffffffffffffff16610a8a610f4c565b73ffffffffffffffffffffffffffffffffffffffff1614610ae0576040517f08c379a0000000000000000000000000000000000000000000000000000000008152600401610ad79061380f565b60405180910390fd5b610ae8612136565b565b610af2611b18565b73ffffffffffffffffffffffffffffffffffffffff16610b10610f4c565b73ffffffffffffffffffffffffffffffffffffffff1614610b66576040517f08c379a0000000000000000000000000000000000000000000000000000000008152600401610b5d9061380f565b60405180910390fd5b610b7082826121d8565b5050565b610b85610b7f611b18565b826121e6565b50565b6000600760008373ffffffffffffffffffffffffffffffffffffffff1673ffffffffffffffffffffffffffffffffffffffff16815260200190815260200160002060009054906101000a900473ffffffffffffffffffffffffffffffffffffffff169050919050565b610c02610bfc611b18565b826121f4565b50565b6000600560009054906101000a900460ff16905090565b6000600a54610c2a83610c87565b10159050919050565b6000610c80600860008473ffffffffffffffffffffffffffffffffffffffff1673ffffffffffffffffffffffffffffffffffffffff16815260200190815260200160002080549050611a7a565b9050919050565b60008060008373ffffffffffffffffffffffffffffffffffffffff1673ffffffffffffffffffffffffffffffffffffffff168152602001908152602001600020549050919050565b610cd7611b18565b73ffffffffffffffffffffffffffffffffffffffff16610cf5610f4c565b73ffffffffffffffffffffffffffffffffffffffff1614610d4b576040517f08c379a0000000000000000000000000000000000000000000000000000000008152600401610d429061380f565b60405180910390fd5b610d55600061230e565b565b610d5f611b18565b73ffffffffffffffffffffffffffffffffffffffff16610d7d610f4c565b73ffffffffffffffffffffffffffffffffffffffff1614610dd3576040517f08c379a0000000000000000000000000000000000000000000000000000000008152600401610dca9061380f565b60405180910390fd5b610ddb61090c565b600a610de79190613962565b81610df291906139ad565b600a8190555050565b6000610e0e83610e09611b18565b611579565b905081811015610e53576040517f08c379a0000000000000000000000000000000000000000000000000000000008152600401610e4a90613a61565b60405180910390fd5b610e6783610e5f611b18565b848403611b20565b610e7183836121e6565b505050565b6000610ebf600660008473ffffffffffffffffffffffffffffffffffffffff1673ffffffffffffffffffffffffffffffffffffffff1681526020019081526020016000206123d4565b9050919050565b610ece611b18565b73ffffffffffffffffffffffffffffffffffffffff16610eec610f4c565b73ffffffffffffffffffffffffffffffffffffffff1614610f42576040517f08c379a0000000000000000000000000000000000000000000000000000000008152600401610f399061380f565b60405180910390fd5b610f4a6123e2565b565b6000600560019054906101000a900473ffffffffffffffffffffffffffffffffffffffff16905090565b6000438210610fba576040517f08c379a0000000000000000000000000000000000000000000000000000000008152600401610fb1906137a3565b60405180910390fd5b610fc560098361202a565b9050919050565b606060048054610fdb90613631565b80601f016020809104026020016040519081016040528092919081815260200182805461100790613631565b80156110545780601f1061102957610100808354040283529160200191611054565b820191906000526020600020905b81548152906001019060200180831161103757829003601f168201915b5050505050905090565b600080600860008473ffffffffffffffffffffffffffffffffffffffff1673ffffffffffffffffffffffffffffffffffffffff1681526020019081526020016000208054905090506000811461114657600860008473ffffffffffffffffffffffffffffffffffffffff1673ffffffffffffffffffffffffffffffffffffffff1681526020019081526020016000206001826110fa9190613a81565b8154811061110b5761110a613ab5565b5b9060005260206000200160000160049054906101000a90047bffffffffffffffffffffffffffffffffffffffffffffffffffffffff16611149565b60005b7bffffffffffffffffffffffffffffffffffffffffffffffffffffffff16915050919050565b6000806001600061117e611b18565b73ffffffffffffffffffffffffffffffffffffffff1673ffffffffffffffffffffffffffffffffffffffff16815260200190815260200160002060008573ffffffffffffffffffffffffffffffffffffffff1673ffffffffffffffffffffffffffffffffffffffff1681526020019081526020016000205490508281101561123b576040517f08c379a000000000000000000000000000000000000000000000000000000000815260040161123290613b56565b60405180910390fd5b61124f611246611b18565b85858403611b20565b600191505092915050565b6000600b5461126883610c87565b10159050919050565b600061128561127e611b18565b8484611ce9565b6001905092915050565b611297611b18565b73ffffffffffffffffffffffffffffffffffffffff166112b5610f4c565b73ffffffffffffffffffffffffffffffffffffffff161461130b576040517f08c379a00000000000000000000000000000000000000000000000000000000081526004016113029061380f565b60405180910390fd5b61131361090c565b600a61131f9190613962565b8161132a91906139ad565b600b8190555050565b83421115611376576040517f08c379a000000000000000000000000000000000000000000000000000000000815260040161136d90613bc2565b60405180910390fd5b60006113d86113d07fe48329057bfd03d55e49b547132e39cffd9c1820ad7b9d4c5307691425d15adf8989896040516020016113b59493929190613be2565b60405160208183030381529060405280519060200120612485565b85858561249f565b90506113e3816124ca565b8614611424576040517f08c379a000000000000000000000000000000000000000000000000000000000815260040161141b90613c73565b60405180910390fd5b61142e81886121f4565b50505050505050565b8342111561147a576040517f08c379a000000000000000000000000000000000000000000000000000000000815260040161147190613cdf565b60405180910390fd5b60007f00000000000000000000000000000000000000000000000000000000000000008888886114a98c6124ca565b896040516020016114bf96959493929190613cff565b60405160208183030381529060405280519060200120905060006114e282612485565b905060006114f28287878761249f565b90508973ffffffffffffffffffffffffffffffffffffffff168173ffffffffffffffffffffffffffffffffffffffff1614611562576040517f08c379a000000000000000000000000000000000000000000000000000000000815260040161155990613dac565b60405180910390fd5b61156d8a8a8a611b20565b50505050505050505050565b6000600160008473ffffffffffffffffffffffffffffffffffffffff1673ffffffffffffffffffffffffffffffffffffffff16815260200190815260200160002060008373ffffffffffffffffffffffffffffffffffffffff1673ffffffffffffffffffffffffffffffffffffffff16815260200190815260200160002054905092915050565b600a5481565b61160e612f9a565b600860008473ffffffffffffffffffffffffffffffffffffffff1673ffffffffffffffffffffffffffffffffffffffff1681526020019081526020016000208263ffffffff168154811061166557611664613ab5565b5b906000526020600020016040518060400160405290816000820160009054906101000a900463ffffffff1663ffffffff1663ffffffff1681526020016000820160049054906101000a90047bffffffffffffffffffffffffffffffffffffffffffffffffffffffff167bffffffffffffffffffffffffffffffffffffffffffffffffffffffff167bffffffffffffffffffffffffffffffffffffffffffffffffffffffff1681525050905092915050565b61171e611b18565b73ffffffffffffffffffffffffffffffffffffffff1661173c610f4c565b73ffffffffffffffffffffffffffffffffffffffff1614611792576040517f08c379a00000000000000000000000000000000000000000000000000000000081526004016117899061380f565b60405180910390fd5b600073ffffffffffffffffffffffffffffffffffffffff168173ffffffffffffffffffffffffffffffffffffffff1603611801576040517f08c379a00000000000000000000000000000000000000000000000000000000081526004016117f890613e3e565b60405180910390fd5b61180a8161230e565b50565b611817828261189a565b61181f612528565b7bffffffffffffffffffffffffffffffffffffffffffffffffffffffff16611845610804565b1115611886576040517f08c379a000000000000000000000000000000000000000000000000000000000815260040161187d90613ed0565b60405180910390fd5b61189460096119f98361254c565b50505050565b600073ffffffffffffffffffffffffffffffffffffffff168273ffffffffffffffffffffffffffffffffffffffff1603611909576040517f08c379a000000000000000000000000000000000000000000000000000000000815260040161190090613f3c565b60405180910390fd5b611915600083836127c4565b80600260008282546119279190613723565b92505081905550806000808473ffffffffffffffffffffffffffffffffffffffff1673ffffffffffffffffffffffffffffffffffffffff168152602001908152602001600020600082825461197c9190613723565b925050819055508173ffffffffffffffffffffffffffffffffffffffff16600073ffffffffffffffffffffffffffffffffffffffff167fddf252ad1be2c89b69c2b068fc378daa952ba7f163c4a11628f55a4df523b3ef836040516119e191906131a8565b60405180910390a36119f56000838361281c565b5050565b60008183611a079190613723565b905092915050565b60007bffffffffffffffffffffffffffffffffffffffffffffffffffffffff8016821115611a72576040517f08c379a0000000000000000000000000000000000000000000000000000000008152600401611a6990613fce565b60405180910390fd5b819050919050565b600063ffffffff8016821115611ac5576040517f08c379a0000000000000000000000000000000000000000000000000000000008152600401611abc90614060565b60405180910390fd5b819050919050565b505050565b611add838383611afd565b611af8611ae984610b88565b611af284610b88565b8361282c565b505050565b505050565b60008183611b109190613a81565b905092915050565b600033905090565b600073ffffffffffffffffffffffffffffffffffffffff168373ffffffffffffffffffffffffffffffffffffffff1603611b8f576040517f08c379a0000000000000000000000000000000000000000000000000000000008152600401611b86906140f2565b60405180910390fd5b600073ffffffffffffffffffffffffffffffffffffffff168273ffffffffffffffffffffffffffffffffffffffff1603611bfe576040517f08c379a0000000000000000000000000000000000000000000000000000000008152600401611bf590614184565b60405180910390fd5b80600160008573ffffffffffffffffffffffffffffffffffffffff1673ffffffffffffffffffffffffffffffffffffffff16815260200190815260200160002060008473ffffffffffffffffffffffffffffffffffffffff1673ffffffffffffffffffffffffffffffffffffffff168152602001908152602001600020819055508173ffffffffffffffffffffffffffffffffffffffff168373ffffffffffffffffffffffffffffffffffffffff167f8c5be1e5ebec7d5bd14f71427d1e84f3dd0314c0f7b2291e5b200ac8c7c3b92583604051611cdc91906131a8565b60405180910390a3505050565b600073ffffffffffffffffffffffffffffffffffffffff168373ffffffffffffffffffffffffffffffffffffffff1603611d58576040517f08c379a0000000000000000000000000000000000000000000000000000000008152600401611d4f90614216565b60405180910390fd5b600073ffffffffffffffffffffffffffffffffffffffff168273ffffffffffffffffffffffffffffffffffffffff1603611dc7576040517f08c379a0000000000000000000000000000000000000000000000000000000008152600401611dbe906142a8565b60405180910390fd5b611dd28383836127c4565b60008060008573ffffffffffffffffffffffffffffffffffffffff1673ffffffffffffffffffffffffffffffffffffffff16815260200190815260200160002054905081811015611e58576040517f08c379a0000000000000000000000000000000000000000000000000000000008152600401611e4f9061433a565b60405180910390fd5b8181036000808673ffffffffffffffffffffffffffffffffffffffff1673ffffffffffffffffffffffffffffffffffffffff16815260200190815260200160002081905550816000808573ffffffffffffffffffffffffffffffffffffffff1673ffffffffffffffffffffffffffffffffffffffff1681526020019081526020016000206000828254611eeb9190613723565b925050819055508273ffffffffffffffffffffffffffffffffffffffff168473ffffffffffffffffffffffffffffffffffffffff167fddf252ad1be2c89b69c2b068fc378daa952ba7f163c4a11628f55a4df523b3ef84604051611f4f91906131a8565b60405180910390a3611f6284848461281c565b50505050565b60007f00000000000000000000000000000000000000000000000000000000000000004603611fb9577f00000000000000000000000000000000000000000000000000000000000000009050612027565b6120247f00000000000000000000000000000000000000000000000000000000000000007f00000000000000000000000000000000000000000000000000000000000000007f0000000000000000000000000000000000000000000000000000000000000000612a25565b90505b90565b6000808380549050905060005b818110156120a957600061204b8284612a5f565b90508486828154811061206157612060613ab5565b5b9060005260206000200160000160009054906101000a900463ffffffff1663ffffffff161115612093578092506120a3565b6001816120a09190613723565b91505b50612037565b6000821461210b57846001836120bf9190613a81565b815481106120d0576120cf613ab5565b5b9060005260206000200160000160049054906101000a90047bffffffffffffffffffffffffffffffffffffffffffffffffffffffff1661210e565b60005b7bffffffffffffffffffffffffffffffffffffffffffffffffffffffff169250505092915050565b61213e610c05565b61217d576040517f08c379a0000000000000000000000000000000000000000000000000000000008152600401612174906143a6565b60405180910390fd5b6000600560006101000a81548160ff0219169083151502179055507f5db9ee0a495bf2e6ff9c91a7834c1ba4fdd244a5e8aa4e537bd38aeae4b073aa6121c1611b18565b6040516121ce91906132ea565b60405180910390a1565b6121e2828261180d565b5050565b6121f08282612a85565b5050565b60006121ff83610b88565b9050600061220c84610c87565b905082600760008673ffffffffffffffffffffffffffffffffffffffff1673ffffffffffffffffffffffffffffffffffffffff16815260200190815260200160002060006101000a81548173ffffffffffffffffffffffffffffffffffffffff021916908373ffffffffffffffffffffffffffffffffffffffff1602179055508273ffffffffffffffffffffffffffffffffffffffff168273ffffffffffffffffffffffffffffffffffffffff168573ffffffffffffffffffffffffffffffffffffffff167f3134e8a2e6d97e929a7e54011ea5485d7d196dd5f0ba4d4ef95803e8e3fc257f60405160405180910390a461230882848361282c565b50505050565b6000600560019054906101000a900473ffffffffffffffffffffffffffffffffffffffff16905081600560016101000a81548173ffffffffffffffffffffffffffffffffffffffff021916908373ffffffffffffffffffffffffffffffffffffffff1602179055508173ffffffffffffffffffffffffffffffffffffffff168173ffffffffffffffffffffffffffffffffffffffff167f8be0079c531659141344cd1fd0a4f28419497f9722a3daafe3b4186f6b6457e060405160405180910390a35050565b600081600001549050919050565b6123ea610c05565b1561242a576040517f08c379a000000000000000000000000000000000000000000000000000000000815260040161242190614412565b60405180910390fd5b6001600560006101000a81548160ff0219169083151502179055507f62e78cea01bee320cd4e420270b5ea74000d11b0c9f74754ebdbfc544b05a25861246e611b18565b60405161247b91906132ea565b60405180910390a1565b6000612498612492611f68565b83612aa3565b9050919050565b60008060006124b087878787612ad6565b915091506124bd81612be2565b8192505050949350505050565b600080600660008473ffffffffffffffffffffffffffffffffffffffff1673ffffffffffffffffffffffffffffffffffffffff1681526020019081526020016000209050612517816123d4565b915061252281612dae565b50919050565b60007bffffffffffffffffffffffffffffffffffffffffffffffffffffffff905090565b600080600085805490509050600081146125ba578560018261256e9190613a81565b8154811061257f5761257e613ab5565b5b9060005260206000200160000160049054906101000a90047bffffffffffffffffffffffffffffffffffffffffffffffffffffffff166125bd565b60005b7bffffffffffffffffffffffffffffffffffffffffffffffffffffffff1692506125eb83858763ffffffff16565b915060008111801561263e575043866001836126079190613a81565b8154811061261857612617613ab5565b5b9060005260206000200160000160009054906101000a900463ffffffff1663ffffffff16145b156126cb5761264c82611a0f565b8660018361265a9190613a81565b8154811061266b5761266a613ab5565b5b9060005260206000200160000160046101000a8154817bffffffffffffffffffffffffffffffffffffffffffffffffffffffff02191690837bffffffffffffffffffffffffffffffffffffffffffffffffffffffff1602179055506127bb565b8560405180604001604052806126e043611a7a565b63ffffffff1681526020016126f485611a0f565b7bffffffffffffffffffffffffffffffffffffffffffffffffffffffff168152509080600181540180825580915050600190039060005260206000200160009091909190915060008201518160000160006101000a81548163ffffffff021916908363ffffffff16021790555060208201518160000160046101000a8154817bffffffffffffffffffffffffffffffffffffffffffffffffffffffff02191690837bffffffffffffffffffffffffffffffffffffffffffffffffffffffff16021790555050505b50935093915050565b6127cc610c05565b1561280c576040517f08c379a000000000000000000000000000000000000000000000000000000000815260040161280390614412565b60405180910390fd5b612817838383611acd565b505050565b612827838383611ad2565b505050565b8173ffffffffffffffffffffffffffffffffffffffff168373ffffffffffffffffffffffffffffffffffffffff16141580156128685750600081115b15612a2057600073ffffffffffffffffffffffffffffffffffffffff168373ffffffffffffffffffffffffffffffffffffffff1614612946576000806128ef600860008773ffffffffffffffffffffffffffffffffffffffff1673ffffffffffffffffffffffffffffffffffffffff168152602001908152602001600020611b028561254c565b915091508473ffffffffffffffffffffffffffffffffffffffff167fdec2bacdd2f05b59de34da9b523dff8be42e5e38e818c82fdb0bae774387a724838360405161293b929190614432565b60405180910390a250505b600073ffffffffffffffffffffffffffffffffffffffff168273ffffffffffffffffffffffffffffffffffffffff1614612a1f576000806129c8600860008673ffffffffffffffffffffffffffffffffffffffff1673ffffffffffffffffffffffffffffffffffffffff1681526020019081526020016000206119f98561254c565b915091508373ffffffffffffffffffffffffffffffffffffffff167fdec2bacdd2f05b59de34da9b523dff8be42e5e38e818c82fdb0bae774387a7248383604051612a14929190614432565b60405180910390a250505b5b505050565b60008383834630604051602001612a4095949392919061445b565b6040516020818303038152906040528051906020012090509392505050565b60006002828418612a7091906144dd565b828416612a7d9190613723565b905092915050565b612a8f8282612dc4565b612a9d6009611b028361254c565b50505050565b60008282604051602001612ab8929190614586565b60405160208183030381529060405280519060200120905092915050565b6000807f7fffffffffffffffffffffffffffffff5d576e7357a4501ddfe92f46681b20a08360001c1115612b11576000600391509150612bd9565b601b8560ff1614158015612b295750601c8560ff1614155b15612b3b576000600491509150612bd9565b600060018787878760405160008152602001604052604051612b6094939291906145bd565b6020604051602081039080840390855afa158015612b82573d6000803e3d6000fd5b505050602060405103519050600073ffffffffffffffffffffffffffffffffffffffff168173ffffffffffffffffffffffffffffffffffffffff1603612bd057600060019250925050612bd9565b80600092509250505b94509492505050565b60006004811115612bf657612bf5614602565b5b816004811115612c0957612c08614602565b5b0315612dab5760016004811115612c2357612c22614602565b5b816004811115612c3657612c35614602565b5b03612c76576040517f08c379a0000000000000000000000000000000000000000000000000000000008152600401612c6d9061467d565b60405180910390fd5b60026004811115612c8a57612c89614602565b5b816004811115612c9d57612c9c614602565b5b03612cdd576040517f08c379a0000000000000000000000000000000000000000000000000000000008152600401612cd4906146e9565b60405180910390fd5b60036004811115612cf157612cf0614602565b5b816004811115612d0457612d03614602565b5b03612d44576040517f08c379a0000000000000000000000000000000000000000000000000000000008152600401612d3b9061477b565b60405180910390fd5b600480811115612d5757612d56614602565b5b816004811115612d6a57612d69614602565b5b03612daa576040517f08c379a0000000000000000000000000000000000000000000000000000000008152600401612da19061480d565b60405180910390fd5b5b50565b6001816000016000828254019250508190555050565b600073ffffffffffffffffffffffffffffffffffffffff168273ffffffffffffffffffffffffffffffffffffffff1603612e33576040517f08c379a0000000000000000000000000000000000000000000000000000000008152600401612e2a9061489f565b60405180910390fd5b612e3f826000836127c4565b60008060008473ffffffffffffffffffffffffffffffffffffffff1673ffffffffffffffffffffffffffffffffffffffff16815260200190815260200160002054905081811015612ec5576040517f08c379a0000000000000000000000000000000000000000000000000000000008152600401612ebc90614931565b60405180910390fd5b8181036000808573ffffffffffffffffffffffffffffffffffffffff1673ffffffffffffffffffffffffffffffffffffffff168152602001908152602001600020819055508160026000828254612f1c9190613a81565b92505081905550600073ffffffffffffffffffffffffffffffffffffffff168373ffffffffffffffffffffffffffffffffffffffff167fddf252ad1be2c89b69c2b068fc378daa952ba7f163c4a11628f55a4df523b3ef84604051612f8191906131a8565b60405180910390a3612f958360008461281c565b505050565b6040518060400160405280600063ffffffff16815260200160007bffffffffffffffffffffffffffffffffffffffffffffffffffffffff1681525090565b600081519050919050565b600082825260208201905092915050565b60005b83811015613012578082015181840152602081019050612ff7565b60008484015250505050565b6000601f19601f8301169050919050565b600061303a82612fd8565b6130448185612fe3565b9350613054818560208601612ff4565b61305d8161301e565b840191505092915050565b60006020820190508181036000830152613082818461302f565b905092915050565b600080fd5b600073ffffffffffffffffffffffffffffffffffffffff82169050919050565b60006130ba8261308f565b9050919050565b6130ca816130af565b81146130d557600080fd5b50565b6000813590506130e7816130c1565b92915050565b6000819050919050565b613100816130ed565b811461310b57600080fd5b50565b60008135905061311d816130f7565b92915050565b6000806040838503121561313a5761313961308a565b5b6000613148858286016130d8565b92505060206131598582860161310e565b9150509250929050565b60008115159050919050565b61317881613163565b82525050565b6000602082019050613193600083018461316f565b92915050565b6131a2816130ed565b82525050565b60006020820190506131bd6000830184613199565b92915050565b6000806000606084860312156131dc576131db61308a565b5b60006131ea868287016130d8565b93505060206131fb868287016130d8565b925050604061320c8682870161310e565b9150509250925092565b600060ff82169050919050565b61322c81613216565b82525050565b60006020820190506132476000830184613223565b92915050565b6000819050919050565b6132608161324d565b82525050565b600060208201905061327b6000830184613257565b92915050565b6000602082840312156132975761329661308a565b5b60006132a58482850161310e565b91505092915050565b6000602082840312156132c4576132c361308a565b5b60006132d2848285016130d8565b91505092915050565b6132e4816130af565b82525050565b60006020820190506132ff60008301846132db565b92915050565b600063ffffffff82169050919050565b61331e81613305565b82525050565b60006020820190506133396000830184613315565b92915050565b61334881613216565b811461335357600080fd5b50565b6000813590506133658161333f565b92915050565b6133748161324d565b811461337f57600080fd5b50565b6000813590506133918161336b565b92915050565b60008060008060008060c087890312156133b4576133b361308a565b5b60006133c289828a016130d8565b96505060206133d389828a0161310e565b95505060406133e489828a0161310e565b94505060606133f589828a01613356565b935050608061340689828a01613382565b92505060a061341789828a01613382565b9150509295509295509295565b600080600080600080600060e0888a0312156134435761344261308a565b5b60006134518a828b016130d8565b97505060206134628a828b016130d8565b96505060406134738a828b0161310e565b95505060606134848a828b0161310e565b94505060806134958a828b01613356565b93505060a06134a68a828b01613382565b92505060c06134b78a828b01613382565b91505092959891949750929550565b600080604083850312156134dd576134dc61308a565b5b60006134eb858286016130d8565b92505060206134fc858286016130d8565b9150509250929050565b61350f81613305565b811461351a57600080fd5b50565b60008135905061352c81613506565b92915050565b600080604083850312156135495761354861308a565b5b6000613557858286016130d8565b92505060206135688582860161351d565b9150509250929050565b61357b81613305565b82525050565b60007bffffffffffffffffffffffffffffffffffffffffffffffffffffffff82169050919050565b6135b281613581565b82525050565b6040820160008201516135ce6000850182613572565b5060208201516135e160208501826135a9565b50505050565b60006040820190506135fc60008301846135b8565b92915050565b7f4e487b7100000000000000000000000000000000000000000000000000000000600052602260045260246000fd5b6000600282049050600182168061364957607f821691505b60208210810361365c5761365b613602565b5b50919050565b7f45524332303a207472616e7366657220616d6f756e742065786365656473206160008201527f6c6c6f77616e6365000000000000000000000000000000000000000000000000602082015250565b60006136be602883612fe3565b91506136c982613662565b604082019050919050565b600060208201905081810360008301526136ed816136b1565b9050919050565b7f4e487b7100000000000000000000000000000000000000000000000000000000600052601160045260246000fd5b600061372e826130ed565b9150613739836130ed565b9250828201905080821115613751576137506136f4565b5b92915050565b7f4552433230566f7465733a20626c6f636b206e6f7420796574206d696e656400600082015250565b600061378d601f83612fe3565b915061379882613757565b602082019050919050565b600060208201905081810360008301526137bc81613780565b9050919050565b7f4f776e61626c653a2063616c6c6572206973206e6f7420746865206f776e6572600082015250565b60006137f9602083612fe3565b9150613804826137c3565b602082019050919050565b60006020820190508181036000830152613828816137ec565b9050919050565b60008160011c9050919050565b6000808291508390505b600185111561388657808604811115613862576138616136f4565b5b60018516156138715780820291505b808102905061387f8561382f565b9450613846565b94509492505050565b60008261389f576001905061395b565b816138ad576000905061395b565b81600181146138c357600281146138cd576138fc565b600191505061395b565b60ff8411156138df576138de6136f4565b5b8360020a9150848211156138f6576138f56136f4565b5b5061395b565b5060208310610133831016604e8410600b84101617156139315782820a90508381111561392c5761392b6136f4565b5b61395b565b61393e848484600161383c565b92509050818404811115613955576139546136f4565b5b81810290505b9392505050565b600061396d826130ed565b915061397883613216565b92506139a57fffffffffffffffffffffffffffffffffffffffffffffffffffffffffffffffff848461388f565b905092915050565b60006139b8826130ed565b91506139c3836130ed565b92508282026139d1816130ed565b915082820484148315176139e8576139e76136f4565b5b5092915050565b7f45524332303a206275726e20616d6f756e74206578636565647320616c6c6f7760008201527f616e636500000000000000000000000000000000000000000000000000000000602082015250565b6000613a4b602483612fe3565b9150613a56826139ef565b604082019050919050565b60006020820190508181036000830152613a7a81613a3e565b9050919050565b6000613a8c826130ed565b9150613a97836130ed565b9250828203905081811115613aaf57613aae6136f4565b5b92915050565b7f4e487b7100000000000000000000000000000000000000000000000000000000600052603260045260246000fd5b7f45524332303a2064656372656173656420616c6c6f77616e63652062656c6f7760008201527f207a65726f000000000000000000000000000000000000000000000000000000602082015250565b6000613b40602583612fe3565b9150613b4b82613ae4565b604082019050919050565b60006020820190508181036000830152613b6f81613b33565b9050919050565b7f4552433230566f7465733a207369676e61747572652065787069726564000000600082015250565b6000613bac601d83612fe3565b9150613bb782613b76565b602082019050919050565b60006020820190508181036000830152613bdb81613b9f565b9050919050565b6000608082019050613bf76000830187613257565b613c0460208301866132db565b613c116040830185613199565b613c1e6060830184613199565b95945050505050565b7f4552433230566f7465733a20696e76616c6964206e6f6e636500000000000000600082015250565b6000613c5d601983612fe3565b9150613c6882613c27565b602082019050919050565b60006020820190508181036000830152613c8c81613c50565b9050919050565b7f45524332305065726d69743a206578706972656420646561646c696e65000000600082015250565b6000613cc9601d83612fe3565b9150613cd482613c93565b602082019050919050565b60006020820190508181036000830152613cf881613cbc565b9050919050565b600060c082019050613d146000830189613257565b613d2160208301886132db565b613d2e60408301876132db565b613d3b6060830186613199565b613d486080830185613199565b613d5560a0830184613199565b979650505050505050565b7f45524332305065726d69743a20696e76616c6964207369676e61747572650000600082015250565b6000613d96601e83612fe3565b9150613da182613d60565b602082019050919050565b60006020820190508181036000830152613dc581613d89565b9050919050565b7f4f776e61626c653a206e6577206f776e657220697320746865207a65726f206160008201527f6464726573730000000000000000000000000000000000000000000000000000602082015250565b6000613e28602683612fe3565b9150613e3382613dcc565b604082019050919050565b60006020820190508181036000830152613e5781613e1b565b9050919050565b7f4552433230566f7465733a20746f74616c20737570706c79207269736b73206f60008201527f766572666c6f77696e6720766f74657300000000000000000000000000000000602082015250565b6000613eba603083612fe3565b9150613ec582613e5e565b604082019050919050565b60006020820190508181036000830152613ee981613ead565b9050919050565b7f45524332303a206d696e7420746f20746865207a65726f206164647265737300600082015250565b6000613f26601f83612fe3565b9150613f3182613ef0565b602082019050919050565b60006020820190508181036000830152613f5581613f19565b9050919050565b7f53616665436173743a2076616c756520646f65736e27742066697420696e203260008201527f3234206269747300000000000000000000000000000000000000000000000000602082015250565b6000613fb8602783612fe3565b9150613fc382613f5c565b604082019050919050565b60006020820190508181036000830152613fe781613fab565b9050919050565b7f53616665436173743a2076616c756520646f65736e27742066697420696e203360008201527f3220626974730000000000000000000000000000000000000000000000000000602082015250565b600061404a602683612fe3565b915061405582613fee565b604082019050919050565b600060208201905081810360008301526140798161403d565b9050919050565b7f45524332303a20617070726f76652066726f6d20746865207a65726f2061646460008201527f7265737300000000000000000000000000000000000000000000000000000000602082015250565b60006140dc602483612fe3565b91506140e782614080565b604082019050919050565b6000602082019050818103600083015261410b816140cf565b9050919050565b7f45524332303a20617070726f766520746f20746865207a65726f20616464726560008201527f7373000000000000000000000000000000000000000000000000000000000000602082015250565b600061416e602283612fe3565b915061417982614112565b604082019050919050565b6000602082019050818103600083015261419d81614161565b9050919050565b7f45524332303a207472616e736665722066726f6d20746865207a65726f20616460008201527f6472657373000000000000000000000000000000000000000000000000000000602082015250565b6000614200602583612fe3565b915061420b826141a4565b604082019050919050565b6000602082019050818103600083015261422f816141f3565b9050919050565b7f45524332303a207472616e7366657220746f20746865207a65726f206164647260008201527f6573730000000000000000000000000000000000000000000000000000000000602082015250565b6000614292602383612fe3565b915061429d82614236565b604082019050919050565b600060208201905081810360008301526142c181614285565b9050919050565b7f45524332303a207472616e7366657220616d6f756e742065786365656473206260008201527f616c616e63650000000000000000000000000000000000000000000000000000602082015250565b6000614324602683612fe3565b915061432f826142c8565b604082019050919050565b6000602082019050818103600083015261435381614317565b9050919050565b7f5061757361626c653a206e6f7420706175736564000000000000000000000000600082015250565b6000614390601483612fe3565b915061439b8261435a565b602082019050919050565b600060208201905081810360008301526143bf81614383565b9050919050565b7f5061757361626c653a2070617573656400000000000000000000000000000000600082015250565b60006143fc601083612fe3565b9150614407826143c6565b602082019050919050565b6000602082019050818103600083015261442b816143ef565b9050919050565b60006040820190506144476000830185613199565b6144546020830184613199565b9392505050565b600060a0820190506144706000830188613257565b61447d6020830187613257565b61448a6040830186613257565b6144976060830185613199565b6144a460808301846132db565b9695505050505050565b7f4e487b7100000000000000000000000000000000000000000000000000000000600052601260045260246000fd5b60006144e8826130ed565b91506144f3836130ed565b925082614503576145026144ae565b5b828204905092915050565b600081905092915050565b7f1901000000000000000000000000000000000000000000000000000000000000600082015250565b600061454f60028361450e565b915061455a82614519565b600282019050919050565b6000819050919050565b61458061457b8261324d565b614565565b82525050565b600061459182614542565b915061459d828561456f565b6020820191506145ad828461456f565b6020820191508190509392505050565b60006080820190506145d26000830187613257565b6145df6020830186613223565b6145ec6040830185613257565b6145f96060830184613257565b95945050505050565b7f4e487b7100000000000000000000000000000000000000000000000000000000600052602160045260246000fd5b7f45434453413a20696e76616c6964207369676e61747572650000000000000000600082015250565b6000614667601883612fe3565b915061467282614631565b602082019050919050565b600060208201905081810360008301526146968161465a565b9050919050565b7f45434453413a20696e76616c6964207369676e6174757265206c656e67746800600082015250565b60006146d3601f83612fe3565b91506146de8261469d565b602082019050919050565b60006020820190508181036000830152614702816146c6565b9050919050565b7f45434453413a20696e76616c6964207369676e6174757265202773272076616c60008201527f7565000000000000000000000000000000000000000000000000000000000000602082015250565b6000614765602283612fe3565b915061477082614709565b604082019050919050565b6000602082019050818103600083015261479481614758565b9050919050565b7f45434453413a20696e76616c6964207369676e6174757265202776272076616c60008201527f7565000000000000000000000000000000000000000000000000000000000000602082015250565b60006147f7602283612fe3565b91506148028261479b565b604082019050919050565b60006020820190508181036000830152614826816147ea565b9050919050565b7f45524332303a206275726e2066726f6d20746865207a65726f2061646472657360008201527f7300000000000000000000000000000000000000000000000000000000000000602082015250565b6000614889602183612fe3565b91506148948261482d565b604082019050919050565b600060208201905081810360008301526148b88161487c565b9050919050565b7f45524332303a206275726e20616d6f756e7420657863656564732062616c616e60008201527f6365000000000000000000000000000000000000000000000000000000000000602082015250565b600061491b602283612fe3565b9150614926826148bf565b604082019050919050565b6000602082019050818103600083015261494a8161490e565b905091905056fea264697066735822122050ca2d9ecdda49337bf08b76af035bc888c5143892f96f9bd3177a768622c65d64736f6c63430008110033",
  "immutableReferences": {
    "1580": [
      {
        "length": 32,
        "start": 5246
      }
    ],
    "2226": [
      {
        "length": 32,
        "start": 8083
      }
    ],
    "2228": [
      {
        "length": 32,
        "start": 8044
      }
    ],
    "2230": [
      {
        "length": 32,
        "start": 8159
      }
    ],
    "2232": [
      {
        "length": 32,
        "start": 8192
      }
    ],
    "2234": [
      {
        "length": 32,
        "start": 8126
      }
    ]
  },
  "source": "// SPDX-License-Identifier: MIT\npragma solidity ^0.8.4;\n\nimport \"@openzeppelin/contracts/token/ERC20/ERC20.sol\";\nimport \"@openzeppelin/contracts/token/ERC20/extensions/ERC20Burnable.sol\";\nimport \"@openzeppelin/contracts/security/Pausable.sol\";\nimport \"@openzeppelin/contracts/access/Ownable.sol\";\nimport \"@openzeppelin/contracts/token/ERC20/extensions/draft-ERC20Permit.sol\";\nimport \"@openzeppelin/contracts/token/ERC20/extensions/ERC20Votes.sol\";\n\n/// @custom:security-contact rik@superhi.com\ncontract WIP is ERC20, ERC20Burnable, Pausable, Ownable, ERC20Permit, ERC20Votes {\n    \n    uint public postThreshold;\n    uint public commentThreshold;\n    \n    constructor() ERC20(\"WIP\", \"WIP\") ERC20Permit(\"WIP\") {\n        _mint(msg.sender, 1000000 * 10 ** decimals());\n        postThreshold = 100 * 10 ** decimals();\n        commentThreshold = 25 * 10 ** decimals();\n    }\n\n    function changePostThreshold (uint newThreshold) public onlyOwner {\n      postThreshold = newThreshold * 10 ** decimals();\n    }\n\n    function changecommentThreshold (uint newThreshold) public onlyOwner {\n      commentThreshold = newThreshold * 10 ** decimals();\n    }\n\n    function canPost (address from) public view returns (bool) {\n      return balanceOf(from) >= postThreshold;\n    }\n\n    function canComment (address from) public view returns (bool) {\n      return balanceOf(from) >= commentThreshold;\n    }\n\n    function pause() public onlyOwner {\n        _pause();\n    }\n\n    function unpause() public onlyOwner {\n        _unpause();\n    }\n\n    function mint(address to, uint256 amount) public onlyOwner {\n        _mint(to, amount);\n    }\n\n    function _beforeTokenTransfer(address from, address to, uint256 amount)\n        internal\n        whenNotPaused\n        override\n    {\n        super._beforeTokenTransfer(from, to, amount);\n    }\n\n    // The following functions are overrides required by Solidity.\n\n    function _afterTokenTransfer(address from, address to, uint256 amount)\n        internal\n        override(ERC20, ERC20Votes)\n    {\n        super._afterTokenTransfer(from, to, amount);\n    }\n\n    function _mint(address to, uint256 amount)\n        internal\n        override(ERC20, ERC20Votes)\n    {\n        super._mint(to, amount);\n    }\n\n    function _burn(address account, uint256 amount)\n        internal\n        override(ERC20, ERC20Votes)\n    {\n        super._burn(account, amount);\n    }\n}",
  "sourcePath": "/Users/jenniferriess/Desktop/w-i-p/w-i-p/contracts/WIP.sol",
  "compiler": {
    "name": "solc",
    "version": "0.8.17+commit.8df45f5f.Emscripten.clang"
  },
  "schemaVersion": "3.4.10",
  "updatedAt": "2022-10-16T06:50:01.155Z",
  "networkType": "ethereum",
  "devdoc": {
    "custom:security-contact": "rik@superhi.com",
    "kind": "dev",
    "methods": {
      "DOMAIN_SEPARATOR()": {
        "details": "See {IERC20Permit-DOMAIN_SEPARATOR}."
      },
      "allowance(address,address)": {
        "details": "See {IERC20-allowance}."
      },
      "approve(address,uint256)": {
        "details": "See {IERC20-approve}. Requirements: - `spender` cannot be the zero address."
      },
      "balanceOf(address)": {
        "details": "See {IERC20-balanceOf}."
      },
      "burn(uint256)": {
        "details": "Destroys `amount` tokens from the caller. See {ERC20-_burn}."
      },
      "burnFrom(address,uint256)": {
        "details": "Destroys `amount` tokens from `account`, deducting from the caller's allowance. See {ERC20-_burn} and {ERC20-allowance}. Requirements: - the caller must have allowance for ``accounts``'s tokens of at least `amount`."
      },
      "checkpoints(address,uint32)": {
        "details": "Get the `pos`-th checkpoint for `account`."
      },
      "decimals()": {
        "details": "Returns the number of decimals used to get its user representation. For example, if `decimals` equals `2`, a balance of `505` tokens should be displayed to a user as `5.05` (`505 / 10 ** 2`). Tokens usually opt for a value of 18, imitating the relationship between Ether and Wei. This is the value {ERC20} uses, unless this function is overridden; NOTE: This information is only used for _display_ purposes: it in no way affects any of the arithmetic of the contract, including {IERC20-balanceOf} and {IERC20-transfer}."
      },
      "decreaseAllowance(address,uint256)": {
        "details": "Atomically decreases the allowance granted to `spender` by the caller. This is an alternative to {approve} that can be used as a mitigation for problems described in {IERC20-approve}. Emits an {Approval} event indicating the updated allowance. Requirements: - `spender` cannot be the zero address. - `spender` must have allowance for the caller of at least `subtractedValue`."
      },
      "delegate(address)": {
        "details": "Delegate votes from the sender to `delegatee`."
      },
      "delegateBySig(address,uint256,uint256,uint8,bytes32,bytes32)": {
        "details": "Delegates votes from signer to `delegatee`"
      },
      "delegates(address)": {
        "details": "Get the address `account` is currently delegating to."
      },
      "getPastTotalSupply(uint256)": {
        "details": "Retrieve the `totalSupply` at the end of `blockNumber`. Note, this value is the sum of all balances. It is but NOT the sum of all the delegated votes! Requirements: - `blockNumber` must have been already mined"
      },
      "getPastVotes(address,uint256)": {
        "details": "Retrieve the number of votes for `account` at the end of `blockNumber`. Requirements: - `blockNumber` must have been already mined"
      },
      "getVotes(address)": {
        "details": "Gets the current votes balance for `account`"
      },
      "increaseAllowance(address,uint256)": {
        "details": "Atomically increases the allowance granted to `spender` by the caller. This is an alternative to {approve} that can be used as a mitigation for problems described in {IERC20-approve}. Emits an {Approval} event indicating the updated allowance. Requirements: - `spender` cannot be the zero address."
      },
      "name()": {
        "details": "Returns the name of the token."
      },
      "nonces(address)": {
        "details": "See {IERC20Permit-nonces}."
      },
      "numCheckpoints(address)": {
        "details": "Get number of checkpoints for `account`."
      },
      "owner()": {
        "details": "Returns the address of the current owner."
      },
      "paused()": {
        "details": "Returns true if the contract is paused, and false otherwise."
      },
      "permit(address,address,uint256,uint256,uint8,bytes32,bytes32)": {
        "details": "See {IERC20Permit-permit}."
      },
      "renounceOwnership()": {
        "details": "Leaves the contract without owner. It will not be possible to call `onlyOwner` functions anymore. Can only be called by the current owner. NOTE: Renouncing ownership will leave the contract without an owner, thereby removing any functionality that is only available to the owner."
      },
      "symbol()": {
        "details": "Returns the symbol of the token, usually a shorter version of the name."
      },
      "totalSupply()": {
        "details": "See {IERC20-totalSupply}."
      },
      "transfer(address,uint256)": {
        "details": "See {IERC20-transfer}. Requirements: - `recipient` cannot be the zero address. - the caller must have a balance of at least `amount`."
      },
      "transferFrom(address,address,uint256)": {
        "details": "See {IERC20-transferFrom}. Emits an {Approval} event indicating the updated allowance. This is not required by the EIP. See the note at the beginning of {ERC20}. Requirements: - `sender` and `recipient` cannot be the zero address. - `sender` must have a balance of at least `amount`. - the caller must have allowance for ``sender``'s tokens of at least `amount`."
      },
      "transferOwnership(address)": {
        "details": "Transfers ownership of the contract to a new account (`newOwner`). Can only be called by the current owner."
      }
    },
    "version": 1
  },
  "userdoc": {
    "kind": "user",
    "methods": {},
    "version": 1
  }
}